:020000020000FC
:100000000FEF0DBF0FE00EBF4AD065C030900080EB
:1000100037FCFCCF03D000930080089500D000008F
:1000200008952D3069F12A30A9F10091008007FD73
:10003000FCCFF4DF209300C0089501E0E7CF02E099
:10004000E5CF00E1E3CF04E1E1CF08E1DFCF0CE150
:10005000DDCF0DE0DBCF0CE0D9CF0EE0D7CF0CE049
:10006000D5CF05B7006C05BF01E0D0DF06E0CEDFDD
:100070000CE0CCDF08E3CADF0895022F0068C6CF8A
:100080000091008007FDFCCF00740068C7DF00937B
:10009000008008952F9320E4F0DF2F9108950FEF53
:1000A00007BBDFDFD6DF0895C8DF20E0E6DF2BE502
:1000B000B8DF2F9325E0B5DF2A95F1F72DE5B1DF05
:1000C0002F9120E4DADF2BE5ACDF2DE5AADF0895E0
:0A00D000050707010895E8DFFECFE1
:00000001FF
